:100000000C9434000C9451000C9451000C94510049
:100010000C9451000C9451000C9451000C9451001C
:100020000C9451000C9451000C9451000C9451000C
:100030000C9451000C9451000C9451000C945100FC
:100040000C9451000C9451000C94E8010C94A601FE
:100050000C9451000C9451000C9451000C945100DC
:100060000C9451000C94510011241FBECFEFD8E026
:10007000DEBFCDBF11E0A0E0B1E0EAEFF4E002C0E6
:1000800005900D92A030B107D9F722E0A0E0B1E0D1
:1000900001C01D92A531B207E1F70E9487000C94C0
:1000A0007B020C94000080E480937C0087E88093BE
:1000B0007A000895853028F02091780030917900F9
:1000C00016C0ECE7F0E09081892B8083EAE7F0E04E
:1000D000808180648083808184FFFDCFEAE7F0E047
:1000E0008081806180832091780030917900822F17
:1000F000932F0895CF93C82F0E9453008C2F0E94F6
:100100005A00CF91089580E00E947A0008951AB8AD
:1001100017B814B80E9483000E944B02489BFECF80
:1001200089B189B1833011F40E949D0089B1853075
:1001300011F40E94A70089B1F1CF82E00E947A00F9
:10014000883C9105D0F782E30E943B02F6CF6F9284
:100150007F928F929F92AF92BF92CF92DF92EF9257
:10016000FF920F931F93CF93DF938BEA0E943B0282
:10017000712C6624639408E810E00F2EF1E8CF2E6E
:10018000F2E0DF2EF02D0F2EF5ECEF2EF12CF02DFE
:100190000F2EFAE8AF2EF2E0BF2EF02D711004C042
:1001A00082E00E947A0003C083E00E947A008C32D1
:1001B0009140A8F40E944502711004C0F801F18238
:1001C000E08203C0F801D182C08260E874E88EE169
:1001D00090E00E946F02762486E90E943B0280E054
:1001E0000E947A00EC01862D0E947A004C01C530F5
:1001F000D105D8F585309105C0F50E944502CAE8C1
:10020000D0E084EF91E09983888360E673EE86E125
:1002100090E00E946F0288EC90E0998388837110CF
:100220000CC085EC90E0909389008093880060E892
:1002300074E88EE190E00E946F028BEA0E943B021C
:1002400082E00E947A008E359140D0F70E944502EC
:100250008AE892E0909389008093880060E874E8CF
:100260008EE190E00E946F0228C08C169D0688F4F3
:1002700071100DC00E944502F801F182E0828CE409
:100280000E943B02C815D90558F0762C87CF8CE424
:1002900087BDC815D90508F081CFF1E07F120AC0EB
:1002A0000E944502F801B182A0828CE40E943B02C8
:1002B000712C74CF8CE487BD71CFDF91CF911F91EA
:1002C0000F91FF90EF90DF90CF90BF90AF909F90F5
:1002D0008F907F906F900895CF93C82F8A3019F434
:1002E0008DE00E946C012FB7207802C0222329F1F3
:1002F000909102019F3FD1F3F89480910101E82F82
:10030000F0E0ED5FFE4FC0838F5F8093010180912D
:1003100002018F5F80930201809101018F3F11F4F0
:1003200010920101E1ECF0E0808180628083222361
:1003300039F0789420E030E005C021E030E002C0E0
:1003400020E030E0822F932FCF9108951F920F92DB
:100350000FB60F9211242F938F939F93EF93FF93D8
:1003600080910201882329F18091010120910201ED
:1003700090E0821B91095AF4E09101018091020101
:10038000F0E0E81BF109EE5FFD4F80810AC0E091CB
:10039000010180910201F0E0E81BF109ED5FFE4FE1
:1003A0008081909102019150909302018093C60048
:1003B00005C0E1ECF0E080818F7D8083FF91EF91BB
:1003C0009F918F912F910F900FBE0F901F901895B6
:1003D0001F920F920FB60F9211242F933F934F93BA
:1003E0005F936F937F938F939F93AF93BF93CF93BD
:1003F000EF93FF93C091C60080910001882349F0DC
:10040000809102018F3F29F060E070E08C2F0E9404
:100410006C0180911402803120F081E080931302FE
:1004200018C0CD3009F4CAE080910202E82FF0E054
:10043000ED5FFD4FC0838F5F8093020280911402B5
:100440008F5F8093140280910202803111F4109228
:100450000202FF91EF91CF91BF91AF919F918F9148
:100460007F916F915F914F913F912F910F900FBEB0
:100470000F901F901895569A16BC94B5936894BD2A
:1004800095B5956095BD87BD089517BC84B514BC1E
:1004900085B515BC089584B1866084B987E893E179
:1004A00090938700809386001092850010928400BC
:1004B000E0E8F0E08081826A8083E1E8F0E080811A
:1004C0008B6180838AE892E0909389008093880012
:1004D00088EC90E090938B0080938A0008956115DA
:1004E00071058105910531F0DC01CB010197A1096E
:0A04F000B109E1F70895F894FFCF79
:00000001FF
