S00C00004D4554522E73726563E0
S11300000C9434000C943E000C943E000C943E007E
S11300100C943E000C943E000C943E000C943E0064
S11300200C943E000C943E000C943E000C943E0054
S11300300C943E000C943E000C943E000C943E0044
S11300400C943E000C943E000C943E000C943E0034
S11300500C943E000C943E000C943E000C943E0024
S11300600C943E000C943E0011241FBECFEFD8E048
S1130070DEBFCDBF0E9474000C944D010C940000AF
S113008080E480937C0087E880937A000895ECE70D
S1130090F0E090818370982B9083EAE7F0E0808110
S11300A080648083808184FFFDCFEAE7F0E0808173
S11300B0806180832091780030917900822F932F82
S11300C00895CF93C82F0E9440008C2F0E944700B0
S11300D0CF9108958FEB87BD60EC76EC8DE290E0D4
S11300E00E94410117BC08951AB88AB180588AB990
S11300F014B80E9413010E941D010E946A004A9BC9
S1130100FECF89B1843011F40E94960089B1853004
S113011011F40E94CA0089B1863011F40E940E01C4
S113012089B1873061F70E941201E9CFC8E8D0E0B5
S11301300F2EF0EDAF2EF7E0BF2EF02D0F2EF4E1D1
S1130140CF2EF5E0DF2EF02D0F2EFAE8EF2EF12C56
S1130150F02D05E113E06894992497F880E00E945B
S113016061008D3C9105D0F717BCB982A88260EC80
S113017076EC8DE290E00E944101D982C882F701B9
S11301801183008360EC76EC8DE290E00E944101E3
S113019097BCE4CFC8E8D0E00F2EF0EDEF2EF7E0E7
S11301A0FF2EF02D04E115E00F2EFAE8AF2EB12C4E
S11301B0F02D0F2EF5E1CF2EF3E0DF2EF02D689415
S11301C0992497F880E00E9461008D3C9105D0F756
S11301D017BCF982E88260EC76EC8DE290E00E9434
S11301E041011983088360EC76EC8DE290E00E9473
S11301F04101F982E88260EC76EC8DE290E00E94A5
S1130200410119830883F501D182C08260EC76EC48
S11302108DE290E00E94410197BCD4CF84E00E941B
S1130220610008950895569A16BC84B5816884BD0A
S113023085B5846085BD17BC089584B1866084B992
S113024080E29EE49093870080938600109285005C
S113025010928400E0E8F0E08081806A8083E1E825
S1130260F0E080818261808380ED97E09093890043
S11302708093880085EC9DE090938B0080938A00A6
S11302800895611571058105910531F0DC01CB01FB
S11102900197A109B109E1F70895F894FFCF91
S9030000FC
