S00C00004D4554522E73726563E0
S11300000C9434000C943E000C943E000C943E007E
S11300100C943E000C943E000C943E000C943E0064
S11300200C943E000C943E000C943E000C943E0054
S11300300C943E000C943E000C943E000C943E0044
S11300400C943E000C943E000C943E000C943E0034
S11300500C943E000C943E000C943E000C943E0024
S11300600C943E000C943E0011241FBECFEFD8E048
S1130070DEBFCDBF0E9485000C94B0000C9400003C
S113008080E88AB9B12C80E090E0DC0168947724A0
S113009072F888248394C12CD12C7601C8E8D0E06E
S11300A004EF11E0EAE8F0E00F2EFDE14F2EF2E05C
S11300B05F2EF02D40E451E025EC30E099249A9431
S11300C04A9B03C0A5B0A724A5B8813065E3960771
S11300D06CE0A607B10530F0B8248BB180588BB919
S11300E0D701C601B11006C05983488331832083E8
S11300F097BC07C061E0B61204C01983088351821B
S113010040820196A11DB11DDBCF1AB814B80E941C
S11301108D000E9498000E944000569A16BC84B537
S1130120816884BD85B5846085BD80E887BD0895F8
S113013084B1866084B987E893E1909387008093C3
S113014086001092850010928400E0E8F0E080813F
S1130150826A8083E1E8F0E080818B618083089586
S1070160F894FFCF3D
S9030000FC
