S00C00004D4554522E73726563E0
S11300000C9434000C943E000C943E000C943E007E
S11300100C943E000C943E000C943E000C943E0064
S11300200C943E000C943E000C943E000C943E0054
S11300300C943E000C943E000C943E000C943E0044
S11300400C943E000C943E000C943E000C943E0034
S11300500C943E000C943E000C943E000C943E0024
S11300600C943E000C943E0011241FBECFEFD8E048
S1130070DEBFCDBF0E9440000C9485000C940000AC
S11300801AB814B80E9456000E9461002BEA85E059
S11300904A9B0AC099B1943009F487BD99B199B1CA
S11300A0963009F427BD99B187BDF2CF569A16BC94
S11300B084B5836884BD85B5856085BD85E087BDCD
S11300C0089584B1866084B98FE39CE99093870096
S11300D0809386001092850010928400E0E8F0E09E
S11300E080818A6A8083E1E8F0E080818160808396
S11300F084E195E090938900809388008FEB92E1EE
S111010090938B0080938A000895F894FFCFAB
S9030000FC
