S00C00004D4554522E73726563E0
S11300000C9434000C943E000C943E000C943E007E
S11300100C943E000C943E000C943E000C943E0064
S11300200C943E000C943E000C943E000C943E0054
S11300300C943E000C943E000C943E000C943E0044
S11300400C943E000C943E000C943E000C943E0034
S11300500C943E000C943E000C943E000C943E0024
S11300600C943E000C943E0011241FBECFEFD8E048
S1130070DEBFCDBF0E9440000C9473000C940000BE
S11300801AB88FEF84B90E94570080E090E054E0E2
S113009020E030E001C0C9014A9B03C045B14527B7
S11300A045B90196803345E79407B1F7F4CF87E863
S11300B093E19093870080938600109285001092BC
S11300C08400E0E8F0E0808182688083E1E8F0E089
S11300D080818B61808316BA84E991E190938900D1
S10D00E0809388000895F894FFCF80
S9030000FC
