:100000000C9434000C9451000C9451000C94510049
:100010000C9451000C9451000C9451000C9451001C
:100020000C9451000C9451000C9451000C9451000C
:100030000C9451000C9451000C9451000C945100FC
:100040000C9451000C9451000C9451000C948401B8
:100050000C94C6010C9451000C9451000C94510066
:100060000C9451000C94510011241FBECFEFD8E026
:10007000DEBFCDBF11E0A0E0B1E0E6EBF4E002C0EE
:1000800005900D92A030B107D9F722E0A0E0B1E0D1
:1000900001C01D92A531B207E1F70E9487000C94C0
:1000A00059020C94000080E480937C0087E88093E0
:1000B0007A000895853028F02091780030917900F9
:1000C00016C0ECE7F0E09081892B8083EAE7F0E04E
:1000D000808180648083808184FFFDCFEAE7F0E047
:1000E0008081806180832091780030917900822F17
:1000F000932F0895CF93C82F0E9453008C2F0E94F6
:100100005A00CF91089580E00E947A0008951AB8AD
:1001100017B814B80E9483000E942902489B03C0AC
:100120000E94980002C00E94EE0081E090E00895D5
:10013000CF93DF938CE80E94190260EC76EC8DE29D
:1001400090E00E944D0280E00E947A00843A914043
:10015000D8F50E942302CAE8D0E08EE591E09983A9
:10016000888360E673EE86E190E00E944D0288ECA1
:1001700090E09983888385EC90E090938900809348
:10018000880060E874E88EE190E00E944D0284E609
:100190000E9419020E94230260E673EE86E190E05D
:1001A0000E944D028CE80E94190283E00E947A00AE
:1001B00082349140D0F70E9423028AE892E0909323
:1001C00089008093880007C080E00E947A00843A0A
:1001D0009140D0F7BECFDF91CF910895CF93DF93B9
:1001E0008CE80E94190260E07BE187EB90E00E94BE
:1001F0004D020E94230260EC76EC8DE290E00E94BA
:100200004D0280E00E947A00803E9140D0F70E942B
:100210002302CAE8D0E08EE591E09983888360E606
:1002200073EE86E190E00E944D0288EC90E09983A5
:10023000888360E874E88EE190E00E944D0282EDD0
:1002400090E0909389008093880060E874E88EE1E4
:1002500090E00E944D0286E40E9419020E9423024F
:1002600060E673EE86E190E00E944D028CE80E9409
:10027000190283E00E947A0082349140D0F70E94F4
:1002800023028AE892E09093890080938800DF91AE
:10029000CF910895CF93C82F8A3019F48DE00E9432
:1002A0004A012FB7207802C0222329F19091020140
:1002B0009F3FD1F3F89480910101E82FF0E0ED5FCA
:1002C000FE4FC0838F5F80930101809102018F5F99
:1002D00080930201809101018F3F11F4109201017E
:1002E000E1ECF0E0808180628083222339F0789411
:1002F00020E030E005C021E030E002C020E030E046
:10030000822F932FCF9108951F920F920FB60F92C5
:1003100011242F938F939F93EF93FF93809102016A
:10032000882329F1809101012091020190E0821B34
:1003300091095AF4E091010180910201F0E0E81B7B
:10034000F109EE5FFD4F80810AC0E09101018091CB
:100350000201F0E0E81BF109ED5FFE4F8081909112
:1003600002019150909302018093C60005C0E1EC18
:10037000F0E080818F7D8083FF91EF919F918F913D
:100380002F910F900FBE0F901F9018951F920F92F4
:100390000FB60F9211242F933F934F935F936F9358
:1003A0007F938F939F93AF93BF93CF93EF93FF93DD
:1003B000C091C60080910001882349F0809102011C
:1003C0008F3F29F060E070E08C2F0E944A018091FD
:1003D0001402803120F081E08093130218C0CD30E8
:1003E00009F4CAE080910202E82FF0E0ED5FFD4FD2
:1003F000C0838F5F80930202809114028F5F80938D
:10040000140280910202803111F410920202FF91D5
:10041000EF91CF91BF91AF919F918F917F916F910C
:100420005F914F913F912F910F900FBE0F901F90B2
:100430001895569A16BC94B5936894BD95B5956079
:1004400095BD87BD089517BC84B514BC85B515BC92
:10045000089584B1866084B987E893E1909387001A
:10046000809386001092850010928400E0E8F0E00E
:100470008081826A8083E1E8F0E080818B61808303
:100480008AE892E0909389008093880088EC90E05D
:1004900090938B0080938A00089561157105810502
:1004A000910531F0DC01CB010197A109B109E1F718
:0604B0000895F894FFCF4F
:00000001FF
