:100000000C9434000C943E000C943E000C943E0082
:100010000C943E000C943E000C943E000C943E0068
:100020000C943E000C943E000C943E000C943E0058
:100030000C943E000C943E000C943E000C943E0048
:100040000C943E000C943E000C943E000C943E0038
:100050000C943E000C943E000C943E000C943E0028
:100060000C943E000C943E0011241FBECFEFD8E04C
:10007000DEBFCDBF0E9440000C946F000C940000C6
:100080001AB817B887E893E19093870080938600A9
:1000900084B1826184B985B1807185B9109285007F
:1000A00010928400E0E8F0E0808180688083E1E8DD
:1000B000F0E080818261808316BA84EC99E09093AD
:1000C00089008093880080E395E70197F1F7E0E8E5
:1000D000F0E080818068808381E090E00895F8946A
:0200E000FFCF50
:00000001FF
