:100000000C9434000C9451000C9451000C94510049
:100010000C9451000C9451000C9451000C9451001C
:100020000C9451000C9451000C9451000C9451000C
:100030000C9451000C9451000C9451000C945100FC
:100040000C9451000C9451000C9451000C945100EC
:100050000C9451000C9451000C9451000C945100DC
:100060000C9451000C94510011241FBECFEFD8E026
:10007000DEBFCDBF11E0A0E0B1E0E4E4F1E002C0FA
:1000800005900D92A030B107D9F711E0A0E0B1E0E2
:1000900001C01D92A030B107E1F70E9478000C94D6
:1000A000A0000C94000080E480937C0087E880939B
:1000B0007A000895ECE7F0E090818770982B9083A8
:1000C000EAE7F0E0808180648083808184FFFDCF57
:1000D000EAE7F0E0808180618083809178009091F0
:1000E000790008950E94530080E00E945A00FCCFDE
:1000F0001AB889B18430C1F4569A84B5816884BD38
:1001000085B5856085BD8AE087BD87EA91E6019760
:10011000F1F700C0000088E387BD87EA91E6019708
:10012000F1F700C0000009C089B1853031F089B114
:10013000863019F089B18730E1F680E090E00895CB
:04014000F894FFCF61
:00000001FF
