S00C00004D4554522E73726563E0
S11300000C9434000C943E000C943E000C943E007E
S11300100C943E000C943E000C943E000C943E0064
S11300200C943E000C943E000C943E000C943E0054
S11300300C943E000C943E000C943E000C943E0044
S11300400C943E000C943E000C943E000C943E0034
S11300500C943E000C943E000C943E000C943E0024
S11300600C943E000C943E0011241FBECFEFD8E048
S1130070DEBFCDBF0E9440000C9466000C940000CB
S11300801AB817B887E893E19093870080938600A5
S1130090219A1092850010928400E0E8F0E08081BB
S11300A080688083E1E8F0E080818361808387E178
S11300B092E090938900809388008FE39CE90197F4
S11300C0F1F700C0000081E090E00895F894FFCFBC
S9030000FC
