S00C00004D4554522E73726563E0
S11300000C9434000C9451000C9451000C94510045
S11300100C9451000C9451000C9451000C94510018
S11300200C9451000C9451000C9451000C94510008
S11300300C9451000C9451000C9451000C945100F8
S11300400C9451000C9451000C9451000C945100E8
S11300500C9451000C9451000C9451000C945100D8
S11300600C9451000C94510011241FBECFEFD8E022
S1130070DEBFCDBF11E0A0E0B1E0EAEFF0E002C0E6
S113008005900D92A030B107D9F711E0A0E0B1E0DE
S113009001C01D92A030B107E1F70E9478000C94D2
S11300A07B000C94000080E480937C0087E88093BC
S11300B07A000895ECE7F0E090818770982B9083A4
S11300C0EAE7F0E0808180648083808184FFFDCF53
S11300D0EAE7F0E0808180618083809178009091EC
S11300E0790008950E94530080E00E945A00FCCFDA
S10D00F080E090E00895F894FFCF3B
S9030000FC
