:100000000C9434000C943E000C943E000C943E0082
:100010000C943E000C943E000C943E000C943E0068
:100020000C943E000C943E000C943E000C943E0058
:100030000C943E000C943E000C943E000C943E0048
:100040000C943E000C943E000C943E000C943E0038
:100050000C943E000C943E000C943E000C943E0028
:100060000C943E000C943E0011241FBECFEFD8E04C
:10007000DEBFCDBF0E9468000C94A9000C94000064
:10008000D12CC8E8D0E00F2EF5ECEF2EF12CF02D9E
:100090000AE812E0CC24C3940E946E0060E87DE878
:1000A0008BE590E00E949D0017BC84B514BC85B51B
:1000B00015BCD11003C01983088302C0F982E882FD
:1000C00060EC76EC8DE290E00E949D00DC24E4CFB1
:1000D0001AB814B80E9479000E944000569A16BCC3
:1000E00084B5836884BD85B5856085BD8FEB87BD8C
:1000F000089584B1866084B987E893E1909387007E
:10010000809386001092850010928400E0E8F0E071
:100110008081826A8083E1E8F0E080818B61808366
:1001200085EC90E0909389008093880088EC90E0C3
:1001300090938B0080938A00089561157105810565
:10014000910531F0DC01CB010197A109B109E1F77B
:060150000895F894FFCFB2
:00000001FF
