:100000000C9434000C943E000C943E000C943E0082
:100010000C943E000C943E000C943E000C943E0068
:100020000C943E000C943E000C943E000C943E0058
:100030000C943E000C943E000C943E000C943E0048
:100040000C943E000C943E000C943E000C943E0038
:100050000C943E000C943E000C943E000C943E0028
:100060000C943E000C943E0011241FBECFEFD8E04C
:10007000DEBFCDBF0E946A000C94A2000C94000069
:1000800080E480937C0087E880937A000895ECE711
:10009000F0E090818770982B9083EAE7F0E0808110
:1000A00080648083808184FFFDCFEAE7F0E0808177
:1000B000806180832091780030917900822F932F86
:1000C0000895CF93C82F0E9440008C2F0E944700B4
:1000D000CF910895D0E8C9B1C2FFFDCF579ADBB9DF
:1000E0008C2F0E947D008C2F0E949F008C2F0E94DD
:1000F000A0008C2F0E94A100EECF8370F9F40E9423
:1001000061008538934018F08BB180588BB9569AAE
:1001100084B5816884BD85B5856085BD8AE087BD6D
:100120008FE39CE90197F1F700C0000088E387BDE9
:100130008FE39CE90197F1F700C00000089508954E
:0801400008950895F894FFCF23
:00000001FF
