:100000000C9434000C943E000C943E000C943E0082
:100010000C943E000C943E000C943E000C943E0068
:100020000C943E000C943E000C943E000C943E0058
:100030000C943E000C943E000C943E000C943E0048
:100040000C943E000C943E000C943E000C943E0038
:100050000C943E000C943E000C943E000C943E0028
:100060000C943E000C943E0011241FBECFEFD8E04C
:10007000DEBFCDBF0E946A000C94B0000C9400005B
:1000800080E480937C0087E880937A000895ECE711
:10009000F0E090818770982B9083EAE7F0E0808110
:1000A00080648083808184FFFDCFEAE7F0E0808177
:1000B000806180832091780030917900822F932F86
:1000C0000895CF93C82F0E9440008C2F0E944700B4
:1000D000CF9108951AB88FEF84B9579A80E88BB9F9
:1000E0000E948E00C9B18C2F0E9480008C2F0E942C
:1000F0008B008C2F0E948C008C2F0E948D00F2CFE1
:10010000837041F40E9461008B3E914018F48BB1E2
:1001100080588BB9089508950895089587E893E16C
:10012000909387008093860084B1826184B985B101
:10013000807185B91092850010928400E0E8F0E0AB
:10014000808182688083E1E8F0E080818B61808338
:1001500016BA84EF91E09093890080938800089507
:04016000F894FFCF41
:00000001FF
