S00C00004D4554522E73726563E0
S11300000C9434000C943E000C943E000C943E007E
S11300100C943E000C943E000C943E000C943E0064
S11300200C943E000C943E000C943E000C943E0054
S11300300C943E000C943E000C943E000C943E0044
S11300400C943E000C943E000C943E000C943E0034
S11300500C943E000C943E000C943E000C943E0024
S11300600C943E000C943E0011241FBECFEFD8E048
S1130070DEBFCDBF0E947D000C94C3000C94000031
S113008080E88AB96894772472F808E810E00F2EA3
S1130090FCE2AF2EBB24B394F02DCAE8D0E00F2EBF
S11300A0F5E1CF2EF3E0DF2EF02D0F2EF0E8EF2E4A
S11300B0FCE0FF2EF02D0F2EF5EC8F2EFDE09F2E91
S11300C0F02D4A9B03C085B1872585B9F801B1821B
S11300D0A082D982C88260E87DE88BE590E00E9426
S11300E0B700F801F182E0829982888260E87DE8B5
S11300F08BE590E00E94B700E4CF1AB88AB180582B
S11301008AB914B80E9488000E9493000E9440009B
S1130110569A16BC84B5816884BD85B5846085BD56
S113012080E887BD089584B1866084B988EA91E641
S1130130909387008093860010928500109284002B
S1130140E0E8F0E08081806A8083E1E8F0E080818B
S11301508261808384E195E0909389008093880094
S113016085EC9DE090938B0080938A00089561153F
S113017071058105910531F0DC01CB010197A109DD
S10D0180B109E1F70895F894FFCFE8
S9030000FC
