:100000000C9434000C9451000C9451000C94510049
:100010000C9451000C9451000C9451000C9451001C
:100020000C9451000C9451000C9451000C9451000C
:100030000C9451000C9451000C9451000C945100FC
:100040000C9451000C9451000C949A010C9458019A
:100050000C9451000C9451000C9451000C945100DC
:100060000C9451000C94510011241FBECFEFD8E026
:10007000DEBFCDBF11E0A0E0B1E0E4E1F5E002C0F9
:1000800005900D92A431B107D9F722E0A4E1B1E0C7
:1000900001C01D92AF32B207E1F70E9471000C94CB
:1000A00088020C940000843028F020917800309170
:1000B000790011C0EAE7F0E080818064808380816C
:1000C00084FFFDCFEAE7F0E08081806180832091AA
:1000D000780030917900822F932F08950E94530069
:1000E00008951AB817B814B80E94F70140E060E00C
:1000F0007BE480E090E00E9401010E94530178942B
:10010000489B08C089B189B1833011F40E948F00E7
:1001100089B189B18EE091E00E945902F1CF82E06D
:100120000E946E00883C9105D0F788EC0E94ED019A
:10013000F6CFCF93C82F8A3019F48DE00E94990032
:100140002FB7207802C0222329F1909116019F3FFA
:10015000D1F3F89480911501E82FF0E0E95EFE4FAD
:10016000C0838F5F80931501809116018F5F80930C
:100170001601809115018F3F11F410921501E1ECE9
:10018000F0E0808180628083222339F0789420E03F
:1001900030E005C021E030E002C020E030E0822FF6
:1001A000932FCF910895809128028823E1F32FB7F0
:1001B0002078F894809116023091280290E0831BF9
:1001C00091095AF4E091160280912802F0E0E81BB0
:1001D000F109E95DFD4F80810AC0E091160280912E
:1001E0002802F0E0E81BF109E95EFD4F8081909163
:1001F0002802915090932802222309F0789490E0ED
:100200000895109215011092160110921602109284
:1002100028021092270240931401DC01CB01880FC1
:10022000991FAA1FBB1F880F991FAA1FBB1F9C01E4
:10023000AD01220F331F441F551F220F331F441FD0
:10024000551F60E074E284EF90E00E941B02DA0127
:10025000C9010196A11DB11DAC01BD01BB2324F450
:100260004F5F5F4F6F4F7F4FDB01CA01B595A79579
:10027000979587959C01215031093093C5002093B3
:10028000C400E1ECF0E088E08083808180648083BA
:1002900080E091E090932C0280932B0290932A02AD
:1002A0008093290208951092160210922802089550
:1002B0001F920F920FB60F9211242F938F939F933B
:1002C000EF93FF9380911601882329F18091150106
:1002D0002091160190E0821B91095AF4E0911501DA
:1002E00080911601F0E0E81BF109EA5EFD4F808184
:1002F0000AC0E091150180911601F0E0E81BF109B8
:10030000E95EFE4F80819091160191509093160105
:100310008093C60005C0E1ECF0E080818F7D808392
:10032000FF91EF919F918F912F910F900FBE0F90A2
:100330001F9018951F920F920FB60F9211242F93B2
:100340003F934F935F936F937F938F939F93AF935D
:10035000BF93CF93EF93FF93C091C6008091140198
:10036000882349F0809116018F3F29F060E070E00A
:100370008C2F0E94990080912802803120F081E02A
:100380008093270218C0CD3009F4CAE0809116028C
:10039000E82FF0E0E95EFD4FC0838F5F8093160287
:1003A000809128028F5F809328028091160280310D
:1003B00011F410921602FF91EF91CF91BF91AF917E
:1003C0009F918F917F916F915F914F913F912F916D
:1003D0000F900FBE0F901F901895569A16BC94B5AB
:1003E000936894BD95B5956095BD87BD089584B11A
:1003F000866084B987E893E19093870080938600B4
:100400001092850010928400E0E8F0E08081826A1A
:100410008083E1E8F0E080818B6180838AE892E06C
:10042000909389008093880088EC90E090938B00F3
:1004300080938A000895052E97FB16F4009407D048
:1004400057FD0DD00E94370207FC09D07EF490952D
:100450008095709561957F4F8F4F9F4F0895509570
:100460004095309521953F4F4F4F5F4F0895A1E242
:100470001A2EAA1BBB1BFD010DC0AA1FBB1FEE1F1E
:10048000FF1FA217B307E407F50720F0A21BB30B69
:10049000E40BF50B661F771F881F991F1A9469F7E5
:1004A00060957095809590959B01AC01BD01CF0141
:1004B00008950F931F93CF93DF938C01E0912B024C
:1004C000F0912C02838181FF1BC0C0E0D0E005C009
:1004D0000995892B11F0CFEFDFEFF80181918F01A2
:1004E00060912B0270912C02DB011896ED91FC912A
:1004F00019978111EDCF8AE00995892B09F402C083
:10050000CFEFDFEFCE01DF91CF911F910F910895D3
:04051000F894FFCF8D
:1005140000000003000000009900D300000066738F
:0405240073660000FA
:00000001FF
